{
  "contractName": "FileStorage",
  "abi": [
    {
      "anonymous": false,
      "inputs": [
        {
          "indexed": true,
          "internalType": "uint256",
          "name": "fileId",
          "type": "uint256"
        },
        {
          "indexed": false,
          "internalType": "string",
          "name": "ipfsHash",
          "type": "string"
        },
        {
          "indexed": false,
          "internalType": "string",
          "name": "description",
          "type": "string"
        },
        {
          "indexed": false,
          "internalType": "uint256",
          "name": "timestamp",
          "type": "uint256"
        },
        {
          "indexed": true,
          "internalType": "address",
          "name": "uploader",
          "type": "address"
        },
        {
          "indexed": false,
          "internalType": "uint256",
          "name": "size",
          "type": "uint256"
        }
      ],
      "name": "FileUploaded",
      "type": "event"
    },
    {
      "inputs": [
        {
          "internalType": "uint256",
          "name": "",
          "type": "uint256"
        }
      ],
      "name": "files",
      "outputs": [
        {
          "internalType": "string",
          "name": "ipfsHash",
          "type": "string"
        },
        {
          "internalType": "string",
          "name": "description",
          "type": "string"
        },
        {
          "internalType": "uint256",
          "name": "timestamp",
          "type": "uint256"
        },
        {
          "internalType": "address",
          "name": "uploader",
          "type": "address"
        },
        {
          "internalType": "uint256",
          "name": "size",
          "type": "uint256"
        }
      ],
      "stateMutability": "view",
      "type": "function"
    },
    {
      "inputs": [
        {
          "internalType": "string",
          "name": "",
          "type": "string"
        },
        {
          "internalType": "uint256",
          "name": "",
          "type": "uint256"
        }
      ],
      "name": "filesByTag",
      "outputs": [
        {
          "internalType": "uint256",
          "name": "",
          "type": "uint256"
        }
      ],
      "stateMutability": "view",
      "type": "function"
    },
    {
      "inputs": [
        {
          "internalType": "address",
          "name": "",
          "type": "address"
        },
        {
          "internalType": "uint256",
          "name": "",
          "type": "uint256"
        }
      ],
      "name": "uploadedFiles",
      "outputs": [
        {
          "internalType": "uint256",
          "name": "",
          "type": "uint256"
        }
      ],
      "stateMutability": "view",
      "type": "function"
    },
    {
      "inputs": [
        {
          "internalType": "string",
          "name": "_ipfsHash",
          "type": "string"
        },
        {
          "internalType": "string",
          "name": "_description",
          "type": "string"
        },
        {
          "internalType": "uint256",
          "name": "_size",
          "type": "uint256"
        },
        {
          "internalType": "address",
          "name": "_uploader",
          "type": "address"
        },
        {
          "internalType": "string",
          "name": "_tag",
          "type": "string"
        }
      ],
      "name": "uploadFile",
      "outputs": [],
      "stateMutability": "nonpayable",
      "type": "function"
    },
    {
      "inputs": [
        {
          "internalType": "uint256",
          "name": "fileId",
          "type": "uint256"
        }
      ],
      "name": "getFile",
      "outputs": [
        {
          "components": [
            {
              "internalType": "string",
              "name": "ipfsHash",
              "type": "string"
            },
            {
              "internalType": "string",
              "name": "description",
              "type": "string"
            },
            {
              "internalType": "uint256",
              "name": "timestamp",
              "type": "uint256"
            },
            {
              "internalType": "address",
              "name": "uploader",
              "type": "address"
            },
            {
              "internalType": "uint256",
              "name": "size",
              "type": "uint256"
            }
          ],
          "internalType": "struct FileStorage.File",
          "name": "",
          "type": "tuple"
        }
      ],
      "stateMutability": "view",
      "type": "function"
    },
    {
      "inputs": [],
      "name": "getAllFiles",
      "outputs": [
        {
          "components": [
            {
              "internalType": "string",
              "name": "ipfsHash",
              "type": "string"
            },
            {
              "internalType": "string",
              "name": "description",
              "type": "string"
            },
            {
              "internalType": "uint256",
              "name": "timestamp",
              "type": "uint256"
            },
            {
              "internalType": "address",
              "name": "uploader",
              "type": "address"
            },
            {
              "internalType": "uint256",
              "name": "size",
              "type": "uint256"
            }
          ],
          "internalType": "struct FileStorage.File[]",
          "name": "",
          "type": "tuple[]"
        }
      ],
      "stateMutability": "view",
      "type": "function"
    },
    {
      "inputs": [
        {
          "internalType": "address",
          "name": "uploader",
          "type": "address"
        }
      ],
      "name": "getFilesByUploader",
      "outputs": [
        {
          "internalType": "uint256[]",
          "name": "",
          "type": "uint256[]"
        }
      ],
      "stateMutability": "view",
      "type": "function"
    },
    {
      "inputs": [
        {
          "internalType": "string",
          "name": "tag",
          "type": "string"
        }
      ],
      "name": "getFilesByTag",
      "outputs": [
        {
          "internalType": "uint256[]",
          "name": "",
          "type": "uint256[]"
        }
      ],
      "stateMutability": "view",
      "type": "function"
    }
  ],
  "bytecode": "0x608060405234801561001057600080fd5b50610ea3806100206000396000f3fe608060405234801561001057600080fd5b50600436106100885760003560e01c8063be550da11161005b578063be550da114610109578063f4c714b41461011e578063f7f318ce14610142578063ff24b5d51461015557610088565b80632bfda3131461008d5780636c338886146100b6578063ab29c47b146100d6578063ac61845e146100e9575b600080fd5b6100a061009b366004610bbd565b61016a565b6040516100ad9190610dd0565b60405180910390f35b6100c96100c4366004610a56565b61032a565b6040516100ad9190610cde565b6100c96100e4366004610aa0565b610396565b6100fc6100f7366004610a77565b610404565b6040516100ad9190610de3565b61011c610117366004610adb565b610435565b005b61013161012c366004610bbd565b6105b0565b6040516100ad959493929190610d22565b6100fc610150366004610b7a565b610712565b61015d61073d565b6040516100ad9190610c7e565b6101726108ed565b600054821061019c5760405162461bcd60e51b815260040161019390610da7565b60405180910390fd5b600082815481106101bd57634e487b7160e01b600052603260045260246000fd5b90600052602060002090600502016040518060a00160405290816000820180546101e690610e1c565b80601f016020809104026020016040519081016040528092919081815260200182805461021290610e1c565b801561025f5780601f106102345761010080835404028352916020019161025f565b820191906000526020600020905b81548152906001019060200180831161024257829003601f168201915b5050505050815260200160018201805461027890610e1c565b80601f01602080910402602001604051908101604052809291908181526020018280546102a490610e1c565b80156102f15780601f106102c6576101008083540402835291602001916102f1565b820191906000526020600020905b8154815290600101906020018083116102d457829003601f168201915b50505091835250506002820154602082015260038201546001600160a01b0316604082015260049091015460609091015290505b919050565b6001600160a01b03811660009081526001602090815260409182902080548351818402810184019094528084526060939283018282801561038a57602002820191906000526020600020905b815481526020019060010190808311610376575b50505050509050919050565b60606002826040516103a89190610c62565b908152604080519182900360209081018320805480830285018301909352828452919083018282801561038a57602002820191906000526020600020908154815260200190600101908083116103765750505050509050919050565b6001602052816000526040600020818154811061042057600080fd5b90600052602060002001600091509150505481565b600080546040805160a081018252888152602080820189905242928201929092526001600160a01b03861660608201526080810187905260018301845592805282518051929392600585027f290decd9548b62a8d60345a988386fc84ba6bc95484008f6362f93160ef3e56301926104b1928492910190610925565b5060208281015180516104ca9260018501920190610925565b5060408281015160028381019190915560608401516003840180546001600160a01b0319166001600160a01b0392831617905560809094015160049093019290925591851660009081526001602081815284832080549283018155835290912001839055905161053b908490610c62565b908152604051908190036020908101822080546001810182556000918252919020018290556001600160a01b0384169082907f276aa9d9a525f6e1c448aaef63e419519da13cba303602dbc2b62b609faf89d4906105a0908a908a9042908b90610d6e565b60405180910390a3505050505050565b600081815481106105c057600080fd5b90600052602060002090600502016000915090508060000180546105e390610e1c565b80601f016020809104026020016040519081016040528092919081815260200182805461060f90610e1c565b801561065c5780601f106106315761010080835404028352916020019161065c565b820191906000526020600020905b81548152906001019060200180831161063f57829003601f168201915b50505050509080600101805461067190610e1c565b80601f016020809104026020016040519081016040528092919081815260200182805461069d90610e1c565b80156106ea5780601f106106bf576101008083540402835291602001916106ea565b820191906000526020600020905b8154815290600101906020018083116106cd57829003601f168201915b5050505060028301546003840154600490940154929390926001600160a01b03909116915085565b8151602081840181018051600282529282019185019190912091905280548290811061042057600080fd5b60606000805480602002602001604051908101604052809291908181526020016000905b828210156108e457838290600052602060002090600502016040518060a001604052908160008201805461079490610e1c565b80601f01602080910402602001604051908101604052809291908181526020018280546107c090610e1c565b801561080d5780601f106107e25761010080835404028352916020019161080d565b820191906000526020600020905b8154815290600101906020018083116107f057829003601f168201915b5050505050815260200160018201805461082690610e1c565b80601f016020809104026020016040519081016040528092919081815260200182805461085290610e1c565b801561089f5780601f106108745761010080835404028352916020019161089f565b820191906000526020600020905b81548152906001019060200180831161088257829003601f168201915b5050509183525050600282015460208083019190915260038301546001600160a01b031660408301526004909201546060909101529082526001929092019101610761565b50505050905090565b6040518060a0016040528060608152602001606081526020016000815260200160006001600160a01b03168152602001600081525090565b82805461093190610e1c565b90600052602060002090601f0160209004810192826109535760008555610999565b82601f1061096c57805160ff1916838001178555610999565b82800160010185558215610999579182015b8281111561099957825182559160200191906001019061097e565b506109a59291506109a9565b5090565b5b808211156109a557600081556001016109aa565b80356001600160a01b038116811461032557600080fd5b600082601f8301126109e5578081fd5b813567ffffffffffffffff80821115610a0057610a00610e57565b604051601f8301601f191681016020018281118282101715610a2457610a24610e57565b604052828152848301602001861015610a3b578384fd5b82602086016020830137918201602001929092529392505050565b600060208284031215610a67578081fd5b610a70826109be565b9392505050565b60008060408385031215610a89578081fd5b610a92836109be565b946020939093013593505050565b600060208284031215610ab1578081fd5b813567ffffffffffffffff811115610ac7578182fd5b610ad3848285016109d5565b949350505050565b600080600080600060a08688031215610af2578081fd5b853567ffffffffffffffff80821115610b09578283fd5b610b1589838a016109d5565b96506020880135915080821115610b2a578283fd5b610b3689838a016109d5565b955060408801359450610b4b606089016109be565b93506080880135915080821115610b60578283fd5b50610b6d888289016109d5565b9150509295509295909350565b60008060408385031215610b8c578182fd5b823567ffffffffffffffff811115610ba2578283fd5b610bae858286016109d5565b95602094909401359450505050565b600060208284031215610bce578081fd5b5035919050565b60008151808452610bed816020860160208601610dec565b601f01601f19169290920160200192915050565b6000815160a08452610c1660a0850182610bd5565b905060208301518482036020860152610c2f8282610bd5565b604085810151908701526060808601516001600160a01b0316908701526080948501519490950193909352509192915050565b60008251610c74818460208701610dec565b9190910192915050565b6000602080830181845280855180835260408601915060408482028701019250838701855b82811015610cd157603f19888603018452610cbf858351610c01565b94509285019290850190600101610ca3565b5092979650505050505050565b6020808252825182820181905260009190848201906040850190845b81811015610d1657835183529284019291840191600101610cfa565b50909695505050505050565b600060a08252610d3560a0830188610bd5565b8281036020840152610d478188610bd5565b604084019690965250506001600160a01b0392909216606083015260809091015292915050565b600060808252610d816080830187610bd5565b8281036020840152610d938187610bd5565b604084019590955250506060015292915050565b6020808252600f908201526e125b9d985b1a5908199a5b19481251608a1b604082015260600190565b600060208252610a706020830184610c01565b90815260200190565b60005b83811015610e07578181015183820152602001610def565b83811115610e16576000848401525b50505050565b600281046001821680610e3057607f821691505b60208210811415610e5157634e487b7160e01b600052602260045260246000fd5b50919050565b634e487b7160e01b600052604160045260246000fdfea2646970667358221220c718de92469b4c4ca5c83f70e8396b157d0e2744f1fd6a3f5c4fa56f7d0b67cd64736f6c63430008000033",
  "immutableReferences": {},
  "source": "// SPDX-License-Identifier: MIT\r\npragma solidity ^0.8.0;\r\n\r\ncontract FileStorage {\r\n    struct File {\r\n        string ipfsHash;\r\n        string description;\r\n        uint256 timestamp;\r\n        address uploader;\r\n        uint256 size;\r\n    }\r\n\r\n    File[] public files;\r\n\r\n    mapping(address => uint[]) public uploadedFiles;\r\n    mapping(string => uint[]) public filesByTag;\r\n\r\n    event FileUploaded(\r\n        uint256 indexed fileId,\r\n        string ipfsHash,\r\n        string description,\r\n        uint256 timestamp,\r\n        address indexed uploader,\r\n        uint256 size\r\n    );\r\n\r\n    function uploadFile(\r\n        string memory _ipfsHash,\r\n        string memory _description,\r\n        uint256 _size,\r\n        address _uploader,\r\n        string memory _tag\r\n    ) public {\r\n        uint256 fileId = files.length;\r\n        files.push(File(_ipfsHash, _description, block.timestamp, _uploader, _size));\r\n\r\n        uploadedFiles[_uploader].push(fileId);\r\n        filesByTag[_tag].push(fileId);\r\n\r\n        emit FileUploaded(fileId, _ipfsHash, _description, block.timestamp, _uploader, _size);\r\n    }\r\n\r\n    function getFile(uint256 fileId) public view returns (File memory) {\r\n        require(fileId < files.length, \"Invalid file ID\");\r\n        return files[fileId];\r\n    }\r\n\r\n    function getAllFiles() public view returns (File[] memory) {\r\n        return files;\r\n    }\r\n\r\n    function getFilesByUploader(address uploader) public view returns (uint[] memory) {\r\n        return uploadedFiles[uploader];\r\n    }\r\n\r\n    function getFilesByTag(string memory tag) public view returns (uint[] memory) {\r\n        return filesByTag[tag];\r\n    }\r\n}\r\n",
  "sourcePath": "C:\\Projects\\Final\\slice-backend\\truffle\\contracts\\FileStorage.sol",
  "compiler": {
    "name": "solc",
    "version": "0.8.0+commit.c7dfd78e.Emscripten.clang"
  },
  "schemaVersion": "3.4.16",
  "updatedAt": "2025-04-24T13:52:14.083Z",
  "devdoc": {
    "kind": "dev",
    "methods": {},
    "version": 1
  },
  "userdoc": {
    "kind": "user",
    "methods": {},
    "version": 1
  }
}