{
  "contractName": "FileStorage",
  "abi": [
    {
      "anonymous": false,
      "inputs": [
        {
          "indexed": true,
          "internalType": "uint256",
          "name": "fileId",
          "type": "uint256"
        },
        {
          "indexed": false,
          "internalType": "string",
          "name": "ipfsHash",
          "type": "string"
        },
        {
          "indexed": false,
          "internalType": "string",
          "name": "description",
          "type": "string"
        },
        {
          "indexed": false,
          "internalType": "uint256",
          "name": "timestamp",
          "type": "uint256"
        },
        {
          "indexed": true,
          "internalType": "address",
          "name": "uploader",
          "type": "address"
        },
        {
          "indexed": false,
          "internalType": "uint256",
          "name": "size",
          "type": "uint256"
        }
      ],
      "name": "FileUploaded",
      "type": "event"
    },
    {
      "inputs": [
        {
          "internalType": "uint256",
          "name": "",
          "type": "uint256"
        }
      ],
      "name": "files",
      "outputs": [
        {
          "internalType": "string",
          "name": "ipfsHash",
          "type": "string"
        },
        {
          "internalType": "string",
          "name": "description",
          "type": "string"
        },
        {
          "internalType": "uint256",
          "name": "timestamp",
          "type": "uint256"
        },
        {
          "internalType": "address",
          "name": "uploader",
          "type": "address"
        },
        {
          "internalType": "uint256",
          "name": "size",
          "type": "uint256"
        }
      ],
      "stateMutability": "view",
      "type": "function",
      "constant": true
    },
    {
      "inputs": [
        {
          "internalType": "string",
          "name": "_ipfsHash",
          "type": "string"
        },
        {
          "internalType": "string",
          "name": "_description",
          "type": "string"
        },
        {
          "internalType": "uint256",
          "name": "_size",
          "type": "uint256"
        }
      ],
      "name": "uploadFile",
      "outputs": [],
      "stateMutability": "nonpayable",
      "type": "function"
    },
    {
      "inputs": [
        {
          "internalType": "uint256",
          "name": "fileId",
          "type": "uint256"
        }
      ],
      "name": "getFile",
      "outputs": [
        {
          "components": [
            {
              "internalType": "string",
              "name": "ipfsHash",
              "type": "string"
            },
            {
              "internalType": "string",
              "name": "description",
              "type": "string"
            },
            {
              "internalType": "uint256",
              "name": "timestamp",
              "type": "uint256"
            },
            {
              "internalType": "address",
              "name": "uploader",
              "type": "address"
            },
            {
              "internalType": "uint256",
              "name": "size",
              "type": "uint256"
            }
          ],
          "internalType": "struct FileStorage.File",
          "name": "",
          "type": "tuple"
        }
      ],
      "stateMutability": "view",
      "type": "function",
      "constant": true
    },
    {
      "inputs": [],
      "name": "getAllFiles",
      "outputs": [
        {
          "components": [
            {
              "internalType": "string",
              "name": "ipfsHash",
              "type": "string"
            },
            {
              "internalType": "string",
              "name": "description",
              "type": "string"
            },
            {
              "internalType": "uint256",
              "name": "timestamp",
              "type": "uint256"
            },
            {
              "internalType": "address",
              "name": "uploader",
              "type": "address"
            },
            {
              "internalType": "uint256",
              "name": "size",
              "type": "uint256"
            }
          ],
          "internalType": "struct FileStorage.File[]",
          "name": "",
          "type": "tuple[]"
        }
      ],
      "stateMutability": "view",
      "type": "function",
      "constant": true
    }
  ],
  "bytecode": "0x608060405234801561001057600080fd5b50610b08806100206000396000f3fe608060405234801561001057600080fd5b506004361061004c5760003560e01c80632419c0db146100515780632bfda31314610066578063f4c714b41461008f578063ff24b5d5146100b3575b600080fd5b61006461005f366004610808565b6100c8565b005b610079610074366004610872565b6101e6565b6040516100869190610a44565b60405180910390f35b6100a261009d366004610872565b6103a4565b604051610086959493929190610996565b6100bb610506565b6040516100869190610936565b6040805160a081018252848152602080820185905242928201929092523360608201526080810183905260008054600181018255908052815180519293849360059093027f290decd9548b62a8d60345a988386fc84ba6bc95484008f6362f93160ef3e563019261013c92849201906106b6565b50602082810151805161015592600185019201906106b6565b506040820151600282015560608201516003820180546001600160a01b0319166001600160a01b0390921691909117905560809091015160049091015560005433906101a390600190610a5e565b7f276aa9d9a525f6e1c448aaef63e419519da13cba303602dbc2b62b609faf89d4868642876040516101d894939291906109e2565b60405180910390a350505050565b6101ee61073a565b60005482106102185760405162461bcd60e51b815260040161020f90610a1b565b60405180910390fd5b6000828154811061023957634e487b7160e01b600052603260045260246000fd5b90600052602060002090600502016040518060a001604052908160008201805461026290610a81565b80601f016020809104026020016040519081016040528092919081815260200182805461028e90610a81565b80156102db5780601f106102b0576101008083540402835291602001916102db565b820191906000526020600020905b8154815290600101906020018083116102be57829003601f168201915b505050505081526020016001820180546102f490610a81565b80601f016020809104026020016040519081016040528092919081815260200182805461032090610a81565b801561036d5780601f106103425761010080835404028352916020019161036d565b820191906000526020600020905b81548152906001019060200180831161035057829003601f168201915b50505091835250506002820154602082015260038201546001600160a01b0316604082015260049091015460609091015292915050565b600081815481106103b457600080fd5b90600052602060002090600502016000915090508060000180546103d790610a81565b80601f016020809104026020016040519081016040528092919081815260200182805461040390610a81565b80156104505780601f1061042557610100808354040283529160200191610450565b820191906000526020600020905b81548152906001019060200180831161043357829003601f168201915b50505050509080600101805461046590610a81565b80601f016020809104026020016040519081016040528092919081815260200182805461049190610a81565b80156104de5780601f106104b3576101008083540402835291602001916104de565b820191906000526020600020905b8154815290600101906020018083116104c157829003601f168201915b5050505060028301546003840154600490940154929390926001600160a01b03909116915085565b60606000805480602002602001604051908101604052809291908181526020016000905b828210156106ad57838290600052602060002090600502016040518060a001604052908160008201805461055d90610a81565b80601f016020809104026020016040519081016040528092919081815260200182805461058990610a81565b80156105d65780601f106105ab576101008083540402835291602001916105d6565b820191906000526020600020905b8154815290600101906020018083116105b957829003601f168201915b505050505081526020016001820180546105ef90610a81565b80601f016020809104026020016040519081016040528092919081815260200182805461061b90610a81565b80156106685780601f1061063d57610100808354040283529160200191610668565b820191906000526020600020905b81548152906001019060200180831161064b57829003601f168201915b5050509183525050600282015460208083019190915260038301546001600160a01b03166040830152600490920154606090910152908252600192909201910161052a565b50505050905090565b8280546106c290610a81565b90600052602060002090601f0160209004810192826106e4576000855561072a565b82601f106106fd57805160ff191683800117855561072a565b8280016001018555821561072a579182015b8281111561072a57825182559160200191906001019061070f565b50610736929150610772565b5090565b6040518060a0016040528060608152602001606081526020016000815260200160006001600160a01b03168152602001600081525090565b5b808211156107365760008155600101610773565b600082601f830112610797578081fd5b813567ffffffffffffffff808211156107b2576107b2610abc565b604051601f8301601f1916810160200182811182821017156107d6576107d6610abc565b6040528281528483016020018610156107ed578384fd5b82602086016020830137918201602001929092529392505050565b60008060006060848603121561081c578283fd5b833567ffffffffffffffff80821115610833578485fd5b61083f87838801610787565b94506020860135915080821115610854578384fd5b5061086186828701610787565b925050604084013590509250925092565b600060208284031215610883578081fd5b5035919050565b60008151808452815b818110156108af57602081850181015186830182015201610893565b818111156108c05782602083870101525b50601f01601f19169290920160200192915050565b6000815160a084526108ea60a085018261088a565b905060208301518482036020860152610903828261088a565b604085810151908701526060808601516001600160a01b0316908701526080948501519490950193909352509192915050565b6000602080830181845280855180835260408601915060408482028701019250838701855b8281101561098957603f198886030184526109778583516108d5565b9450928501929085019060010161095b565b5092979650505050505050565b600060a082526109a960a083018861088a565b82810360208401526109bb818861088a565b604084019690965250506001600160a01b0392909216606083015260809091015292915050565b6000608082526109f5608083018761088a565b8281036020840152610a07818761088a565b604084019590955250506060015292915050565b6020808252600f908201526e125b9d985b1a5908199a5b19481251608a1b604082015260600190565b600060208252610a5760208301846108d5565b9392505050565b600082821015610a7c57634e487b7160e01b81526011600452602481fd5b500390565b600281046001821680610a9557607f821691505b60208210811415610ab657634e487b7160e01b600052602260045260246000fd5b50919050565b634e487b7160e01b600052604160045260246000fdfea26469706673582212202e1355309aa7bc12d5b07db93bc6c760b2ab11423519c66b04d546f8fbbb462664736f6c63430008000033",
  "immutableReferences": {},
  "source": "// SPDX-License-Identifier: MIT\r\npragma solidity ^0.8.0;\r\n\r\ncontract FileStorage {\r\n    struct File {\r\n        string ipfsHash;\r\n        string description;\r\n        uint256 timestamp;\r\n        address uploader;\r\n        uint256 size;\r\n    }\r\n\r\n    File[] public files;\r\n\r\n    event FileUploaded(\r\n        uint256 indexed fileId,\r\n        string ipfsHash,\r\n        string description,\r\n        uint256 timestamp,\r\n        address indexed uploader,\r\n        uint256 size\r\n    );\r\n\r\n    function uploadFile(string memory _ipfsHash, string memory _description, uint256 _size) public {\r\n        File memory newFile = File(_ipfsHash, _description, block.timestamp, msg.sender, _size);\r\n        files.push(newFile);\r\n        emit FileUploaded(files.length - 1, _ipfsHash, _description, block.timestamp, msg.sender, _size);\r\n    }\r\n\r\n    function getFile(uint256 fileId) public view returns (File memory) {\r\n        require(fileId < files.length, \"Invalid file ID\");\r\n        return files[fileId];\r\n    }\r\n\r\n    function getAllFiles() public view returns (File[] memory) {\r\n        return files;\r\n    }\r\n}\r\n",
  "sourcePath": "C:\\Projects\\Final\\slice-backend\\truffle\\contracts\\FileStorage.sol",
  "compiler": {
    "name": "solc",
    "version": "0.8.0+commit.c7dfd78e.Emscripten.clang"
  },
  "schemaVersion": "3.4.16",
  "updatedAt": "2025-04-19T15:46:33.172Z",
  "networkType": "ethereum",
  "devdoc": {
    "kind": "dev",
    "methods": {},
    "version": 1
  },
  "userdoc": {
    "kind": "user",
    "methods": {},
    "version": 1
  }
}