{
  "contractName": "FileStorage",
  "abi": [
    {
      "anonymous": false,
      "inputs": [
        {
          "indexed": true,
          "internalType": "uint256",
          "name": "fileId",
          "type": "uint256"
        },
        {
          "indexed": false,
          "internalType": "string",
          "name": "ipfsHash",
          "type": "string"
        },
        {
          "indexed": false,
          "internalType": "string",
          "name": "name",
          "type": "string"
        },
        {
          "indexed": false,
          "internalType": "string",
          "name": "description",
          "type": "string"
        },
        {
          "indexed": false,
          "internalType": "uint256",
          "name": "timestamp",
          "type": "uint256"
        },
        {
          "indexed": true,
          "internalType": "address",
          "name": "uploader",
          "type": "address"
        },
        {
          "indexed": false,
          "internalType": "uint256",
          "name": "size",
          "type": "uint256"
        }
      ],
      "name": "FileUploaded",
      "type": "event"
    },
    {
      "inputs": [
        {
          "internalType": "uint256",
          "name": "",
          "type": "uint256"
        }
      ],
      "name": "files",
      "outputs": [
        {
          "internalType": "string",
          "name": "ipfsHash",
          "type": "string"
        },
        {
          "internalType": "string",
          "name": "name",
          "type": "string"
        },
        {
          "internalType": "string",
          "name": "description",
          "type": "string"
        },
        {
          "internalType": "uint256",
          "name": "timestamp",
          "type": "uint256"
        },
        {
          "internalType": "address",
          "name": "uploader",
          "type": "address"
        },
        {
          "internalType": "uint256",
          "name": "size",
          "type": "uint256"
        }
      ],
      "stateMutability": "view",
      "type": "function",
      "constant": true
    },
    {
      "inputs": [
        {
          "internalType": "string",
          "name": "",
          "type": "string"
        },
        {
          "internalType": "uint256",
          "name": "",
          "type": "uint256"
        }
      ],
      "name": "filesByTag",
      "outputs": [
        {
          "internalType": "uint256",
          "name": "",
          "type": "uint256"
        }
      ],
      "stateMutability": "view",
      "type": "function",
      "constant": true
    },
    {
      "inputs": [
        {
          "internalType": "address",
          "name": "",
          "type": "address"
        },
        {
          "internalType": "uint256",
          "name": "",
          "type": "uint256"
        }
      ],
      "name": "uploadedFiles",
      "outputs": [
        {
          "internalType": "uint256",
          "name": "",
          "type": "uint256"
        }
      ],
      "stateMutability": "view",
      "type": "function",
      "constant": true
    },
    {
      "inputs": [
        {
          "internalType": "string",
          "name": "_ipfsHash",
          "type": "string"
        },
        {
          "internalType": "string",
          "name": "_name",
          "type": "string"
        },
        {
          "internalType": "string",
          "name": "_description",
          "type": "string"
        },
        {
          "internalType": "uint256",
          "name": "_size",
          "type": "uint256"
        },
        {
          "internalType": "address",
          "name": "_uploader",
          "type": "address"
        },
        {
          "internalType": "string",
          "name": "_tag",
          "type": "string"
        }
      ],
      "name": "uploadFile",
      "outputs": [],
      "stateMutability": "nonpayable",
      "type": "function"
    },
    {
      "inputs": [
        {
          "internalType": "uint256",
          "name": "fileId",
          "type": "uint256"
        }
      ],
      "name": "getFile",
      "outputs": [
        {
          "components": [
            {
              "internalType": "string",
              "name": "ipfsHash",
              "type": "string"
            },
            {
              "internalType": "string",
              "name": "name",
              "type": "string"
            },
            {
              "internalType": "string",
              "name": "description",
              "type": "string"
            },
            {
              "internalType": "uint256",
              "name": "timestamp",
              "type": "uint256"
            },
            {
              "internalType": "address",
              "name": "uploader",
              "type": "address"
            },
            {
              "internalType": "uint256",
              "name": "size",
              "type": "uint256"
            }
          ],
          "internalType": "struct FileStorage.File",
          "name": "",
          "type": "tuple"
        }
      ],
      "stateMutability": "view",
      "type": "function",
      "constant": true
    },
    {
      "inputs": [],
      "name": "getAllFiles",
      "outputs": [
        {
          "components": [
            {
              "internalType": "string",
              "name": "ipfsHash",
              "type": "string"
            },
            {
              "internalType": "string",
              "name": "name",
              "type": "string"
            },
            {
              "internalType": "string",
              "name": "description",
              "type": "string"
            },
            {
              "internalType": "uint256",
              "name": "timestamp",
              "type": "uint256"
            },
            {
              "internalType": "address",
              "name": "uploader",
              "type": "address"
            },
            {
              "internalType": "uint256",
              "name": "size",
              "type": "uint256"
            }
          ],
          "internalType": "struct FileStorage.File[]",
          "name": "",
          "type": "tuple[]"
        }
      ],
      "stateMutability": "view",
      "type": "function",
      "constant": true
    },
    {
      "inputs": [
        {
          "internalType": "address",
          "name": "uploader",
          "type": "address"
        }
      ],
      "name": "getFilesByUploader",
      "outputs": [
        {
          "internalType": "uint256[]",
          "name": "",
          "type": "uint256[]"
        }
      ],
      "stateMutability": "view",
      "type": "function",
      "constant": true
    },
    {
      "inputs": [
        {
          "internalType": "string",
          "name": "tag",
          "type": "string"
        }
      ],
      "name": "getFilesByTag",
      "outputs": [
        {
          "internalType": "uint256[]",
          "name": "",
          "type": "uint256[]"
        }
      ],
      "stateMutability": "view",
      "type": "function",
      "constant": true
    }
  ],
  "bytecode": "0x608060405234801561001057600080fd5b506110e0806100206000396000f3fe608060405234801561001057600080fd5b50600436106100885760003560e01c8063ac61845e1161005b578063ac61845e146100fe578063f4c714b41461011e578063f7f318ce14610143578063ff24b5d51461015657610088565b80632bfda3131461008d5780636c338886146100b65780636fcd367f146100d6578063ab29c47b146100eb575b600080fd5b6100a061009b366004610db6565b61016b565b6040516100ad919061100d565b60405180910390f35b6100c96100c4366004610c2d565b6103bd565b6040516100ad9190610ef1565b6100e96100e4366004610cb2565b610429565b005b6100c96100f9366004610c77565b6105c1565b61011161010c366004610c4e565b61062f565b6040516100ad9190611020565b61013161012c366004610db6565b610660565b6040516100ad96959493929190610f35565b610111610151366004610d73565b610850565b61015e61087b565b6040516100ad9190610e91565b610173610abd565b600054821061019d5760405162461bcd60e51b815260040161019490610fe4565b60405180910390fd5b600082815481106101be57634e487b7160e01b600052603260045260246000fd5b90600052602060002090600602016040518060c00160405290816000820180546101e790611059565b80601f016020809104026020016040519081016040528092919081815260200182805461021390611059565b80156102605780601f1061023557610100808354040283529160200191610260565b820191906000526020600020905b81548152906001019060200180831161024357829003601f168201915b5050505050815260200160018201805461027990611059565b80601f01602080910402602001604051908101604052809291908181526020018280546102a590611059565b80156102f25780601f106102c7576101008083540402835291602001916102f2565b820191906000526020600020905b8154815290600101906020018083116102d557829003601f168201915b5050505050815260200160028201805461030b90611059565b80601f016020809104026020016040519081016040528092919081815260200182805461033790611059565b80156103845780601f1061035957610100808354040283529160200191610384565b820191906000526020600020905b81548152906001019060200180831161036757829003601f168201915b50505091835250506003820154602082015260048201546001600160a01b0316604082015260059091015460609091015290505b919050565b6001600160a01b03811660009081526001602090815260409182902080548351818402810184019094528084526060939283018282801561041d57602002820191906000526020600020905b815481526020019060010190808311610409575b50505050509050919050565b600080546040805160c08101825289815260208082018a90529181018890524260608201526001600160a01b038616608082015260a0810187905260018301845592805282518051929392600685027f290decd9548b62a8d60345a988386fc84ba6bc95484008f6362f93160ef3e56301926104a9928492910190610afc565b5060208281015180516104c29260018501920190610afc565b50604082015180516104de916002840191602090910190610afc565b506060820151600382015560808201516004820180546001600160a01b0319166001600160a01b0392831617905560a0909201516005909101558316600090815260016020818152604080842080549384018155845292200182905551600290610549908490610e75565b908152604051908190036020908101822080546001810182556000918252919020018290556001600160a01b0384169082907f351b0dab77beceac52f6a5bc02f81c47602f3112cd121d1d1351aba79a0e329b906105b0908b908b908b9042908c90610f96565b60405180910390a350505050505050565b60606002826040516105d39190610e75565b908152604080519182900360209081018320805480830285018301909352828452919083018282801561041d57602002820191906000526020600020908154815260200190600101908083116104095750505050509050919050565b6001602052816000526040600020818154811061064b57600080fd5b90600052602060002001600091509150505481565b6000818154811061067057600080fd5b906000526020600020906006020160009150905080600001805461069390611059565b80601f01602080910402602001604051908101604052809291908181526020018280546106bf90611059565b801561070c5780601f106106e15761010080835404028352916020019161070c565b820191906000526020600020905b8154815290600101906020018083116106ef57829003601f168201915b50505050509080600101805461072190611059565b80601f016020809104026020016040519081016040528092919081815260200182805461074d90611059565b801561079a5780601f1061076f5761010080835404028352916020019161079a565b820191906000526020600020905b81548152906001019060200180831161077d57829003601f168201915b5050505050908060020180546107af90611059565b80601f01602080910402602001604051908101604052809291908181526020018280546107db90611059565b80156108285780601f106107fd57610100808354040283529160200191610828565b820191906000526020600020905b81548152906001019060200180831161080b57829003601f168201915b5050505060038301546004840154600590940154929390926001600160a01b03909116915086565b8151602081840181018051600282529282019185019190912091905280548290811061064b57600080fd5b60606000805480602002602001604051908101604052809291908181526020016000905b82821015610ab457838290600052602060002090600602016040518060c00160405290816000820180546108d290611059565b80601f01602080910402602001604051908101604052809291908181526020018280546108fe90611059565b801561094b5780601f106109205761010080835404028352916020019161094b565b820191906000526020600020905b81548152906001019060200180831161092e57829003601f168201915b5050505050815260200160018201805461096490611059565b80601f016020809104026020016040519081016040528092919081815260200182805461099090611059565b80156109dd5780601f106109b2576101008083540402835291602001916109dd565b820191906000526020600020905b8154815290600101906020018083116109c057829003601f168201915b505050505081526020016002820180546109f690611059565b80601f0160208091040260200160405190810160405280929190818152602001828054610a2290611059565b8015610a6f5780601f10610a4457610100808354040283529160200191610a6f565b820191906000526020600020905b815481529060010190602001808311610a5257829003601f168201915b5050509183525050600382015460208083019190915260048301546001600160a01b03166040830152600590920154606090910152908252600192909201910161089f565b50505050905090565b6040518060c001604052806060815260200160608152602001606081526020016000815260200160006001600160a01b03168152602001600081525090565b828054610b0890611059565b90600052602060002090601f016020900481019282610b2a5760008555610b70565b82601f10610b4357805160ff1916838001178555610b70565b82800160010185558215610b70579182015b82811115610b70578251825591602001919060010190610b55565b50610b7c929150610b80565b5090565b5b80821115610b7c5760008155600101610b81565b80356001600160a01b03811681146103b857600080fd5b600082601f830112610bbc578081fd5b813567ffffffffffffffff80821115610bd757610bd7611094565b604051601f8301601f191681016020018281118282101715610bfb57610bfb611094565b604052828152848301602001861015610c12578384fd5b82602086016020830137918201602001929092529392505050565b600060208284031215610c3e578081fd5b610c4782610b95565b9392505050565b60008060408385031215610c60578081fd5b610c6983610b95565b946020939093013593505050565b600060208284031215610c88578081fd5b813567ffffffffffffffff811115610c9e578182fd5b610caa84828501610bac565b949350505050565b60008060008060008060c08789031215610cca578182fd5b863567ffffffffffffffff80821115610ce1578384fd5b610ced8a838b01610bac565b97506020890135915080821115610d02578384fd5b610d0e8a838b01610bac565b96506040890135915080821115610d23578384fd5b610d2f8a838b01610bac565b955060608901359450610d4460808a01610b95565b935060a0890135915080821115610d59578283fd5b50610d6689828a01610bac565b9150509295509295509295565b60008060408385031215610d85578182fd5b823567ffffffffffffffff811115610d9b578283fd5b610da785828601610bac565b95602094909401359450505050565b600060208284031215610dc7578081fd5b5035919050565b60008151808452610de6816020860160208601611029565b601f01601f19169290920160200192915050565b6000815160c08452610e0f60c0850182610dce565b905060208301518482036020860152610e288282610dce565b91505060408301518482036040860152610e428282610dce565b606085810151908701526080808601516001600160a01b03169087015260a0948501519490950193909352509192915050565b60008251610e87818460208701611029565b9190910192915050565b6000602080830181845280855180835260408601915060408482028701019250838701855b82811015610ee457603f19888603018452610ed2858351610dfa565b94509285019290850190600101610eb6565b5092979650505050505050565b6020808252825182820181905260009190848201906040850190845b81811015610f2957835183529284019291840191600101610f0d565b50909695505050505050565b600060c08252610f4860c0830189610dce565b8281036020840152610f5a8189610dce565b90508281036040840152610f6e8188610dce565b606084019690965250506001600160a01b0392909216608083015260a0909101529392505050565b600060a08252610fa960a0830188610dce565b8281036020840152610fbb8188610dce565b90508281036040840152610fcf8187610dce565b60608401959095525050608001529392505050565b6020808252600f908201526e125b9d985b1a5908199a5b19481251608a1b604082015260600190565b600060208252610c476020830184610dfa565b90815260200190565b60005b8381101561104457818101518382015260200161102c565b83811115611053576000848401525b50505050565b60028104600182168061106d57607f821691505b6020821081141561108e57634e487b7160e01b600052602260045260246000fd5b50919050565b634e487b7160e01b600052604160045260246000fdfea26469706673582212202ec9656acde38788e0e10ba20163d1b5b5fe60690dffa6b9830a4e23f215314064736f6c63430008000033",
  "immutableReferences": {},
  "source": "// SPDX-License-Identifier: MIT\r\npragma solidity ^0.8.0;\r\n\r\ncontract FileStorage {\r\n    struct File {\r\n        string ipfsHash;\r\n        string name; // Added name field\r\n        string description;\r\n        uint256 timestamp;\r\n        address uploader;\r\n        uint256 size;\r\n    }\r\n\r\n    File[] public files;\r\n\r\n    mapping(address => uint[]) public uploadedFiles;\r\n    mapping(string => uint[]) public filesByTag;\r\n\r\n    event FileUploaded(\r\n        uint256 indexed fileId,\r\n        string ipfsHash,\r\n        string name, // Added name to event\r\n        string description,\r\n        uint256 timestamp,\r\n        address indexed uploader,\r\n        uint256 size\r\n    );\r\n\r\n    function uploadFile(\r\n        string memory _ipfsHash,\r\n        string memory _name, // Added name parameter\r\n        string memory _description,\r\n        uint256 _size,\r\n        address _uploader,\r\n        string memory _tag\r\n    ) public {\r\n        uint256 fileId = files.length;\r\n        files.push(File(_ipfsHash, _name, _description, block.timestamp, _uploader, _size));\r\n\r\n        uploadedFiles[_uploader].push(fileId);\r\n        filesByTag[_tag].push(fileId);\r\n\r\n        emit FileUploaded(fileId, _ipfsHash, _name, _description, block.timestamp, _uploader, _size);\r\n    }\r\n\r\n    function getFile(uint256 fileId) public view returns (File memory) {\r\n        require(fileId < files.length, \"Invalid file ID\");\r\n        return files[fileId];\r\n    }\r\n\r\n    function getAllFiles() public view returns (File[] memory) {\r\n        return files;\r\n    }\r\n\r\n    function getFilesByUploader(address uploader) public view returns (uint[] memory) {\r\n        return uploadedFiles[uploader];\r\n    }\r\n\r\n    function getFilesByTag(string memory tag) public view returns (uint[] memory) {\r\n        return filesByTag[tag];\r\n    }\r\n}",
  "sourcePath": "C:\\Projects\\Final\\slice-backend\\truffle\\contracts\\FileStorage.sol",
  "compiler": {
    "name": "solc",
    "version": "0.8.0+commit.c7dfd78e.Emscripten.clang"
  },
  "schemaVersion": "3.4.16",
  "updatedAt": "2025-04-24T19:10:06.076Z",
  "networkType": "ethereum",
  "devdoc": {
    "kind": "dev",
    "methods": {},
    "version": 1
  },
  "userdoc": {
    "kind": "user",
    "methods": {},
    "version": 1
  }
}